{
  "contractName": "TicTacToe",
  "abi": [
    {
      "inputs": [],
      "payable": true,
      "stateMutability": "payable",
      "type": "constructor"
    },
    {
      "anonymous": false,
      "inputs": [],
      "name": "GameDraw",
      "type": "event"
    },
    {
      "anonymous": false,
      "inputs": [
        {
          "indexed": false,
          "internalType": "address",
          "name": "winner",
          "type": "address"
        }
      ],
      "name": "GameWin",
      "type": "event"
    },
    {
      "anonymous": false,
      "inputs": [
        {
          "indexed": false,
          "internalType": "address",
          "name": "player",
          "type": "address"
        }
      ],
      "name": "NextPlayer",
      "type": "event"
    },
    {
      "anonymous": false,
      "inputs": [
        {
          "indexed": false,
          "internalType": "address",
          "name": "receiver",
          "type": "address"
        },
        {
          "indexed": false,
          "internalType": "uint256",
          "name": "amountInWei",
          "type": "uint256"
        }
      ],
      "name": "PayoutSuccess",
      "type": "event"
    },
    {
      "anonymous": false,
      "inputs": [
        {
          "indexed": false,
          "internalType": "address",
          "name": "player",
          "type": "address"
        }
      ],
      "name": "PlayerJoined",
      "type": "event"
    },
    {
      "constant": true,
      "inputs": [],
      "name": "activePlayer",
      "outputs": [
        {
          "internalType": "address payable",
          "name": "",
          "type": "address"
        }
      ],
      "payable": false,
      "stateMutability": "view",
      "type": "function"
    },
    {
      "constant": true,
      "inputs": [],
      "name": "gameCost",
      "outputs": [
        {
          "internalType": "uint256",
          "name": "",
          "type": "uint256"
        }
      ],
      "payable": false,
      "stateMutability": "view",
      "type": "function"
    },
    {
      "constant": true,
      "inputs": [],
      "name": "player1",
      "outputs": [
        {
          "internalType": "address payable",
          "name": "",
          "type": "address"
        }
      ],
      "payable": false,
      "stateMutability": "view",
      "type": "function"
    },
    {
      "constant": true,
      "inputs": [],
      "name": "player2",
      "outputs": [
        {
          "internalType": "address payable",
          "name": "",
          "type": "address"
        }
      ],
      "payable": false,
      "stateMutability": "view",
      "type": "function"
    },
    {
      "constant": true,
      "inputs": [],
      "name": "getBoard",
      "outputs": [
        {
          "internalType": "address[3][3]",
          "name": "",
          "type": "address[3][3]"
        }
      ],
      "payable": false,
      "stateMutability": "view",
      "type": "function"
    },
    {
      "constant": false,
      "inputs": [],
      "name": "joinGame",
      "outputs": [],
      "payable": true,
      "stateMutability": "payable",
      "type": "function"
    },
    {
      "constant": false,
      "inputs": [
        {
          "internalType": "uint8",
          "name": "x",
          "type": "uint8"
        },
        {
          "internalType": "uint8",
          "name": "y",
          "type": "uint8"
        }
      ],
      "name": "setStone",
      "outputs": [],
      "payable": false,
      "stateMutability": "nonpayable",
      "type": "function"
    }
  ],
  "bytecode": "0x608060405260b46000556003600260006101000a81548160ff021916908360ff16021790555067016345785d8a000034146100a2576040517f08c379a000000000000000000000000000000000000000000000000000000000815260040180806020018281038252601b8152602001807f50617920302e312065746865727320746f206a6f696e2067616d65000000000081525060200191505060405180910390fd5b33600e60006101000a81548173ffffffffffffffffffffffffffffffffffffffff021916908373ffffffffffffffffffffffffffffffffffffffff1602179055506000544201600181905550611420806100fd6000396000f3fe6080604052600436106100705760003560e01c80637fdffd231161004e5780637fdffd231461018d578063cab896dc146101e4578063d30895e41461020f578063d4f77b1c1461026657610070565b80633264a34b1461007557806359a5f12d146100eb5780637d3f907414610142575b600080fd5b34801561008157600080fd5b5061008a610270565b604051808260036000925b818410156100db5782846020020151600360200280838360005b838110156100ca5780820151818401526020810190506100af565b505050509050019260010192610095565b9250505091505060405180910390f35b3480156100f757600080fd5b50610100610329565b604051808273ffffffffffffffffffffffffffffffffffffffff1673ffffffffffffffffffffffffffffffffffffffff16815260200191505060405180910390f35b34801561014e57600080fd5b5061018b6004803603604081101561016557600080fd5b81019080803560ff169060200190929190803560ff16906020019092919050505061034f565b005b34801561019957600080fd5b506101a2610db2565b604051808273ffffffffffffffffffffffffffffffffffffffff1673ffffffffffffffffffffffffffffffffffffffff16815260200191505060405180910390f35b3480156101f057600080fd5b506101f9610dd8565b6040518082815260200191505060405180910390f35b34801561021b57600080fd5b50610224610de4565b604051808273ffffffffffffffffffffffffffffffffffffffff1673ffffffffffffffffffffffffffffffffffffffff16815260200191505060405180910390f35b61026e610e0a565b005b61027861139c565b6005600380602002604051908101604052809291906000905b828210156103205783826003020160038060200260405190810160405280929190826003801561030c576020028201915b8160009054906101000a900473ffffffffffffffffffffffffffffffffffffffff1673ffffffffffffffffffffffffffffffffffffffff16815260200190600101908083116102c2575b505050505081526020019060010190610291565b50505050905090565b600f60009054906101000a900473ffffffffffffffffffffffffffffffffffffffff1681565b42600154116103c6576040517f08c379a00000000000000000000000000000000000000000000000000000000081526004018080602001828103825260088152602001807f54696d65206f757400000000000000000000000000000000000000000000000081525060200191505060405180910390fd5b600073ffffffffffffffffffffffffffffffffffffffff1660058360ff16600381106103ee57fe5b600302018260ff166003811061040057fe5b0160009054906101000a900473ffffffffffffffffffffffffffffffffffffffff1673ffffffffffffffffffffffffffffffffffffffff16146104ab576040517f08c379a00000000000000000000000000000000000000000000000000000000081526004018080602001828103825260128152602001807f506c616365206973206e6f7420656d707479000000000000000000000000000081525060200191505060405180910390fd5b601060009054906101000a900473ffffffffffffffffffffffffffffffffffffffff1673ffffffffffffffffffffffffffffffffffffffff163373ffffffffffffffffffffffffffffffffffffffff161461056e576040517f08c379a00000000000000000000000000000000000000000000000000000000081526004018080602001828103825260158152602001807f54686973206973206e6f7420796f7572207475726e000000000000000000000081525060200191505060405180910390fd5b600260009054906101000a900460ff1660ff168260ff161061058c57fe5b600260009054906101000a900460ff1660ff168160ff16106105aa57fe5b601060149054906101000a900460ff166105c057fe5b3360058360ff16600381106105d157fe5b600302018260ff16600381106105e357fe5b0160006101000a81548173ffffffffffffffffffffffffffffffffffffffff021916908373ffffffffffffffffffffffffffffffffffffffff16021790555060005442016001819055506002600181819054906101000a900460ff168092919060010191906101000a81548160ff021916908360ff1602179055505060008090505b600260009054906101000a900460ff1660ff168160ff16101561077d57601060009054906101000a900473ffffffffffffffffffffffffffffffffffffffff1673ffffffffffffffffffffffffffffffffffffffff1660058260ff16600381106106cb57fe5b600302018360ff16600381106106dd57fe5b0160009054906101000a900473ffffffffffffffffffffffffffffffffffffffff1673ffffffffffffffffffffffffffffffffffffffff161461071f5761077d565b6001600260009054906101000a900460ff160360ff168160ff1614156107705761076a601060009054906101000a900473ffffffffffffffffffffffffffffffffffffffff16611160565b50610dae565b8080600101915050610665565b5060008090505b600260009054906101000a900460ff1660ff168160ff16101561089c57601060009054906101000a900473ffffffffffffffffffffffffffffffffffffffff1673ffffffffffffffffffffffffffffffffffffffff1660058460ff16600381106107ea57fe5b600302018260ff16600381106107fc57fe5b0160009054906101000a900473ffffffffffffffffffffffffffffffffffffffff1673ffffffffffffffffffffffffffffffffffffffff161461083e5761089c565b6001600260009054906101000a900460ff160360ff168160ff16141561088f57610889601060009054906101000a900473ffffffffffffffffffffffffffffffffffffffff16611160565b50610dae565b8080600101915050610784565b508060ff168260ff1614156109cb5760008090505b600260009054906101000a900460ff1660ff168160ff1610156109c957601060009054906101000a900473ffffffffffffffffffffffffffffffffffffffff1673ffffffffffffffffffffffffffffffffffffffff1660058260ff166003811061091757fe5b600302018260ff166003811061092957fe5b0160009054906101000a900473ffffffffffffffffffffffffffffffffffffffff1673ffffffffffffffffffffffffffffffffffffffff161461096b576109c9565b6001600260009054906101000a900460ff160360ff168160ff1614156109bc576109b6601060009054906101000a900473ffffffffffffffffffffffffffffffffffffffff16611160565b50610dae565b80806001019150506108b1565b505b6001600260009054906101000a900460ff160360ff1681830160ff161415610b215760008090505b600260009054906101000a900460ff1660ff168160ff161015610b1f57601060009054906101000a900473ffffffffffffffffffffffffffffffffffffffff1673ffffffffffffffffffffffffffffffffffffffff1660058260ff1660038110610a5957fe5b60030201826001600260009054906101000a900460ff16030360ff1660038110610a7f57fe5b0160009054906101000a900473ffffffffffffffffffffffffffffffffffffffff1673ffffffffffffffffffffffffffffffffffffffff1614610ac157610b1f565b6001600260009054906101000a900460ff160360ff168160ff161415610b1257610b0c601060009054906101000a900473ffffffffffffffffffffffffffffffffffffffff16611160565b50610dae565b80806001019150506109f3565b505b60028060009054906101000a900460ff1660ff160a60ff16600260019054906101000a900460ff1660ff161415610b5f57610b5a61123f565b610dae565b600e60009054906101000a900473ffffffffffffffffffffffffffffffffffffffff1673ffffffffffffffffffffffffffffffffffffffff16601060009054906101000a900473ffffffffffffffffffffffffffffffffffffffff1673ffffffffffffffffffffffffffffffffffffffff161415610cc457600f60009054906101000a900473ffffffffffffffffffffffffffffffffffffffff16601060006101000a81548173ffffffffffffffffffffffffffffffffffffffff021916908373ffffffffffffffffffffffffffffffffffffffff1602179055507f637351f91da430278368fb3e486c8c3da47b2e6ce4d28b2c404cb044702ca7e1601060009054906101000a900473ffffffffffffffffffffffffffffffffffffffff16604051808273ffffffffffffffffffffffffffffffffffffffff1673ffffffffffffffffffffffffffffffffffffffff16815260200191505060405180910390a1610dad565b600e60009054906101000a900473ffffffffffffffffffffffffffffffffffffffff16601060006101000a81548173ffffffffffffffffffffffffffffffffffffffff021916908373ffffffffffffffffffffffffffffffffffffffff1602179055507f637351f91da430278368fb3e486c8c3da47b2e6ce4d28b2c404cb044702ca7e1601060009054906101000a900473ffffffffffffffffffffffffffffffffffffffff16604051808273ffffffffffffffffffffffffffffffffffffffff1673ffffffffffffffffffffffffffffffffffffffff16815260200191505060405180910390a15b5b5050565b601060009054906101000a900473ffffffffffffffffffffffffffffffffffffffff1681565b67016345785d8a000081565b600e60009054906101000a900473ffffffffffffffffffffffffffffffffffffffff1681565b67016345785d8a00003414610e87576040517f08c379a000000000000000000000000000000000000000000000000000000000815260040180806020018281038252601b8152602001807f50617920302e312065746865727320746f206a6f696e2067616d65000000000081525060200191505060405180910390fd5b600e60009054906101000a900473ffffffffffffffffffffffffffffffffffffffff1673ffffffffffffffffffffffffffffffffffffffff163373ffffffffffffffffffffffffffffffffffffffff161415610f4b576040517f08c379a000000000000000000000000000000000000000000000000000000000815260040180806020018281038252601f8152602001807f506c61796572312068617320616c7265616479206a6f696e65642047616d650081525060200191505060405180910390fd5b600073ffffffffffffffffffffffffffffffffffffffff16600f60009054906101000a900473ffffffffffffffffffffffffffffffffffffffff1673ffffffffffffffffffffffffffffffffffffffff161461100f576040517f08c379a00000000000000000000000000000000000000000000000000000000081526004018080602001828103825260058152602001807f4572726f7200000000000000000000000000000000000000000000000000000081525060200191505060405180910390fd5b33600f60006101000a81548173ffffffffffffffffffffffffffffffffffffffff021916908373ffffffffffffffffffffffffffffffffffffffff160217905550600f60009054906101000a900473ffffffffffffffffffffffffffffffffffffffff16601060006101000a81548173ffffffffffffffffffffffffffffffffffffffff021916908373ffffffffffffffffffffffffffffffffffffffff1602179055506001601060146101000a81548160ff02191690831515021790555060005442016001819055507f31e760aa525306aba638a784082a013b6a1cc0a9a1789f3f22281c0453b10b1f601060009054906101000a900473ffffffffffffffffffffffffffffffffffffffff16604051808273ffffffffffffffffffffffffffffffffffffffff1673ffffffffffffffffffffffffffffffffffffffff16815260200191505060405180910390a1565b6000601060146101000a81548160ff0219169083151502179055507f112defe3d686a62e038aa204e737b0987d551958f5d49db3606f9bb9213a7e5681604051808273ffffffffffffffffffffffffffffffffffffffff1673ffffffffffffffffffffffffffffffffffffffff16815260200191505060405180910390a18073ffffffffffffffffffffffffffffffffffffffff166108fc3073ffffffffffffffffffffffffffffffffffffffff16319081150290604051600060405180830381858888f1935050505015801561123b573d6000803e3d6000fd5b5050565b6000601060146101000a81548160ff0219169083151502179055507fa4c4401dace3a98737dc94c84d18bc94944a6d3d88571034bb81436527b1546c60405160405180910390a1600e60009054906101000a900473ffffffffffffffffffffffffffffffffffffffff1673ffffffffffffffffffffffffffffffffffffffff166108fc60023073ffffffffffffffffffffffffffffffffffffffff1631816112e357fe5b049081150290604051600060405180830381858888f1935050505015801561130f573d6000803e3d6000fd5b50600f60009054906101000a900473ffffffffffffffffffffffffffffffffffffffff1673ffffffffffffffffffffffffffffffffffffffff166108fc60023073ffffffffffffffffffffffffffffffffffffffff16318161136d57fe5b049081150290604051600060405180830381858888f19350505050158015611399573d6000803e3d6000fd5b50565b60405180606001604052806003905b6113b36113c9565b8152602001906001900390816113ab5790505090565b604051806060016040528060039060208202803883398082019150509050509056fea265627a7a72315820a72ad92357f8894dd32d7d6238c57f9ba79c969780a753046f06365b633a7bee64736f6c634300050c0032",
  "source": "pragma solidity 0.5.12;\n\ncontract TicTacToe {\n\n    uint constant public gameCost = 0.1 ether;\n    uint timeToReact = 3 minutes;\n    uint gameValidUntil;\n\n    uint8 boardSize = 3;\n    uint8 movesCounter;\n    uint balanceToWithdrawPlayer1;\n    uint balanceToWithdrawPlayer2;\n\n    address[3][3] board;\n    address payable public player1;\n    address payable public player2;\n\n    address payable public activePlayer;\n    bool activeGame;\n\n    event PlayerJoined(address player);\n    event NextPlayer(address player);\n    event GameWin(address winner);\n    event GameDraw();\n    event PayoutSuccess(address receiver, uint amountInWei);\n\n    constructor () public payable {\n        require(msg.value == gameCost, \"Pay 0.1 ethers to join game\");\n        player1 = msg.sender;\n        gameValidUntil = now + timeToReact;\n    }\n\n    function getBoard() public view returns(address[3][3] memory){\n        return board;\n    }\n\n    function setWinner(address payable player) private {\n        activeGame = false;\n        //emit an event\n        emit GameWin(player);\n        //transfer money to winner\n        player.transfer(address(this).balance);\n    }\n\n    function setDraw() private {\n        activeGame = false;\n        emit GameDraw();\n        player1.transfer(address(this).balance/2);\n        player2.transfer(address(this).balance/2);\n    }\n\n    // function emergencyCashOut() public {\n    //     require(gameValidUntil < now, \"Wait for player to play\");\n    //     require(activeGame, \"game is not active\");\n    // }\n\n    function joinGame() public payable{\n        require(msg.value == gameCost, \"Pay 0.1 ethers to join game\");\n        require(msg.sender != player1, \"Player1 has already joined Game\");\n        require(player2 == address(0), \"Error\");\n        player2 = msg.sender;\n        activePlayer = player2;\n        activeGame = true;\n        gameValidUntil = now + timeToReact;\n        emit PlayerJoined(activePlayer);\n    }\n\n    function setStone(uint8 x, uint8 y) public {\n        require(gameValidUntil > now, \"Time out\");\n        require(board[x][y] == address(0), \"Place is not empty\");\n        require(msg.sender == activePlayer, \"This is not your turn\");\n        assert(x < boardSize);\n        assert(y < boardSize);\n        assert(activeGame);\n        board[x][y] = msg.sender;\n        gameValidUntil = now + timeToReact;\n        movesCounter++;\n\n        for(uint8 i = 0; i < boardSize; i++){\n            if(board[i][y] != activePlayer){\n                break;\n            }\n            //win\n            if( i == boardSize - 1){\n                //winner\n                setWinner(activePlayer);\n                return;\n            }\n        }\n\n        for(uint8 i = 0; i < boardSize; i++){\n            if(board[x][i] != activePlayer){\n                break;\n            }\n            //win\n            if( i == boardSize - 1){\n                //winner\n                setWinner(activePlayer);\n                return;\n            }\n        }\n\n        //diagonal\n        if(x == y){\n            for(uint8 i = 0 ; i < boardSize ; i++){\n                if(board[i][i] != activePlayer ){\n                    break;\n                }\n                //win\n                if( i == boardSize - 1){\n                    //winner\n                    setWinner(activePlayer);\n                    return;\n                }\n            }\n        }\n\n        //anti-diagonal\n        if( (x+y) == boardSize - 1){\n            for(uint8 i = 0 ; i < boardSize ; i++){\n                if(board[i][boardSize-1-i] != activePlayer){\n                    break;\n                }\n                //win\n                if( i == boardSize - 1){\n                    //winner\n                    setWinner(activePlayer);\n                    return;\n                }\n            }\n        }\n\n        if(movesCounter == boardSize**2){\n            setDraw();\n            return;\n        }\n\n        if(activePlayer == player1){\n            activePlayer = player2;\n            emit NextPlayer(activePlayer);\n        }else{\n            activePlayer = player1;\n            emit NextPlayer(activePlayer);\n        }\n    }\n}",
  "sourcePath": "/home/harsh/Desktop/Udemy_BlockchainGame/contracts/TicTacToe.sol",
  "compiler": {
    "name": "solc",
    "version": "0.5.12+commit.7709ece9.Emscripten.clang"
  },
  "schemaVersion": "3.0.19",
  "updatedAt": "2019-11-30T14:42:51.837Z",
  "devdoc": {
    "methods": {}
  },
  "userdoc": {
    "methods": {}
  }
}